{
  "transactions": [
    {
      "hash": "0xe89c09e2ccfb5f6b748c03b647c395bf3faf7e92d152d5dc86aa6e830cedfe36",
      "transactionType": "CREATE",
      "contractName": "TestMultisigTransaction",
      "contractAddress": "0xe89b1abe6dc6170fa958e54e5aef25639ccbd837",
      "function": null,
      "arguments": [
        "0x6d6b118d600A941D8A8C31e053cB9717986B60a8"
      ],
      "transaction": {
        "from": "0x85a0779ca390adad02aa63075373bf33e7c5a711",
        "to": null,
        "gas": "0x2d2e6",
        "value": "0x0",
        "input": "0x6080604052600060015534801561001557600080fd5b506040516101b83803806101b883398101604081905261003491610059565b600080546001600160a01b0319166001600160a01b0392909216919091179055610089565b60006020828403121561006b57600080fd5b81516001600160a01b038116811461008257600080fd5b9392505050565b610120806100986000396000f3fe6080604052348015600f57600080fd5b506004361060465760003560e01c806326ccab1814604b57806341b01ba01460625780638da5cb5b14606a578063e8927fbc146093575b600080fd5b6001545b6040519081526020015b60405180910390f35b604f60015481565b600054607c906001600160a01b031681565b6040516001600160a01b0390911681526020016059565b6099609b565b005b6000546001600160a01b0316330360c257600180600082825460bc919060c4565b90915550505b565b8082018082111560e457634e487b7160e01b600052601160045260246000fd5b9291505056fea2646970667358221220c390315b9d0dc60fbe2e1ffe9fdfce201c39906b239513017df5cc994c0ec75b64736f6c634300081700330000000000000000000000006d6b118d600a941d8a8c31e053cb9717986b60a8",
        "nonce": "0x1c",
        "chainId": "0x2105",
        "accessList": null,
        "type": null
      },
      "additionalContracts": [],
      "isFixedGasLimit": false
    },
    {
      "hash": "0x26df61efbc9c19b310e87d1940c7a2fa483e33192397303e7cfb43e3aa20db22",
      "transactionType": "CALL",
      "contractName": null,
      "contractAddress": "0x6d6b118d600a941d8a8c31e053cb9717986b60a8",
      "function": "approveHash(bytes32)",
      "arguments": [
        "0x1004e23a6c8c43a9c08ce28a4f0d4d4853e162111103c1956b54a7e7082fcedd"
      ],
      "transaction": {
        "from": "0x85a0779ca390adad02aa63075373bf33e7c5a711",
        "to": "0x6d6b118d600a941d8a8c31e053cb9717986b60a8",
        "gas": "0x11ccb",
        "value": "0x0",
        "input": "0xd4d9bdcd1004e23a6c8c43a9c08ce28a4f0d4d4853e162111103c1956b54a7e7082fcedd",
        "nonce": "0x1d",
        "chainId": "0x2105",
        "accessList": null,
        "type": null
      },
      "additionalContracts": [],
      "isFixedGasLimit": false
    },
    {
      "hash": "0xac9a462e57a6479b9db007f55ce41d4613f3e359a94288a014ec80c16903bd84",
      "transactionType": "CALL",
      "contractName": null,
      "contractAddress": "0x6d6b118d600a941d8a8c31e053cb9717986b60a8",
      "function": "approveHash(bytes32)",
      "arguments": [
        "0x1004e23a6c8c43a9c08ce28a4f0d4d4853e162111103c1956b54a7e7082fcedd"
      ],
      "transaction": {
        "from": "0xc2170c60032a0ab2851b6c655960385d8f2c3bba",
        "to": "0x6d6b118d600a941d8a8c31e053cb9717986b60a8",
        "gas": "0x11ccb",
        "value": "0x0",
        "input": "0xd4d9bdcd1004e23a6c8c43a9c08ce28a4f0d4d4853e162111103c1956b54a7e7082fcedd",
        "nonce": "0x6",
        "chainId": "0x2105",
        "accessList": null,
        "type": null
      },
      "additionalContracts": [],
      "isFixedGasLimit": false
    },
    {
      "hash": "0x6e4b4e55af025f4ea5fbd56a91d00df2de8f4662c9d9844cbae8ae1d3b051da2",
      "transactionType": "CALL",
      "contractName": null,
      "contractAddress": "0x6d6b118d600a941d8a8c31e053cb9717986b60a8",
      "function": "execTransaction(address,uint256,bytes,uint8,uint256,uint256,uint256,address,address,bytes)",
      "arguments": [
        "0xe89B1Abe6Dc6170Fa958E54e5AEF25639ccBD837",
        "0",
        "0xe8927fbc",
        "0",
        "0",
        "0",
        "0",
        "0x0000000000000000000000000000000000000000",
        "0x0000000000000000000000000000000000000000",
        "0x00000000000000000000000085a0779ca390adad02aa63075373bf33e7c5a711000000000000000000000000000000000000000000000000000000000000000001000000000000000000000000c2170c60032a0ab2851b6c655960385d8f2c3bba000000000000000000000000000000000000000000000000000000000000000001"
      ],
      "transaction": {
        "from": "0xc2170c60032a0ab2851b6c655960385d8f2c3bba",
        "to": "0x6d6b118d600a941d8a8c31e053cb9717986b60a8",
        "gas": "0x1d49d",
        "value": "0x0",
        "input": "0x6a761202000000000000000000000000e89b1abe6dc6170fa958e54e5aef25639ccbd8370000000000000000000000000000000000000000000000000000000000000000000000000000000000000000000000000000000000000000000000000000014000000000000000000000000000000000000000000000000000000000000000000000000000000000000000000000000000000000000000000000000000000000000000000000000000000000000000000000000000000000000000000000000000000000000000000000000000000000000000000000000000000000000000000000000000000000000000000000000000000000000000000000000000000000000000000000000000000000000000000000000000000000000000000000000000000000000000000000000000000000000000000000000000000000000001800000000000000000000000000000000000000000000000000000000000000004e8927fbc00000000000000000000000000000000000000000000000000000000000000000000000000000000000000000000000000000000000000000000008200000000000000000000000085a0779ca390adad02aa63075373bf33e7c5a711000000000000000000000000000000000000000000000000000000000000000001000000000000000000000000c2170c60032a0ab2851b6c655960385d8f2c3bba000000000000000000000000000000000000000000000000000000000000000001000000000000000000000000000000000000000000000000000000000000",
        "nonce": "0x7",
        "chainId": "0x2105",
        "accessList": null,
        "type": null
      },
      "additionalContracts": [],
      "isFixedGasLimit": false
    }
  ],
  "receipts": [
    {
      "status": "0x1",
      "cumulativeGasUsed": "0x751562",
      "logs": [],
      "logsBloom": "0x00000000000000000000000000000000000000000000000000000000000000000000000000000000000000000000000000000000000000000000000000000000000000000000000000000000000000000000000000000000000000000000000000000000000000000000000000000000000000000000000000000000000000000000000000000000000000000000000000000000000000000000000000000000000000000000000000000000000000000000000000000000000000000000000000000000000000000000000000000000000000000000000000000000000000000000000000000000000000000000000000000000000000000000000000000000",
      "type": "0x2",
      "transactionHash": "0xe89c09e2ccfb5f6b748c03b647c395bf3faf7e92d152d5dc86aa6e830cedfe36",
      "transactionIndex": "0x4a",
      "blockHash": "0xe18523c5cb6316d09850a709fdca898c7ebe8dc69fb273a607b699014a49a06b",
      "blockNumber": "0xcf72f0",
      "gasUsed": "0x22c32",
      "effectiveGasPrice": "0xde65abf",
      "from": "0x85a0779ca390adad02aa63075373bf33e7c5a711",
      "to": null,
      "contractAddress": "0xe89b1abe6dc6170fa958e54e5aef25639ccbd837",
      "l1Fee": "0x227d151cb6",
      "l1GasPrice": "0x3a475890f",
      "l1GasUsed": "0x2198"
    },
    {
      "status": "0x1",
      "cumulativeGasUsed": "0x60c852",
      "logs": [
        {
          "address": "0x6d6b118d600a941d8a8c31e053cb9717986b60a8",
          "topics": [
            "0xf2a0eb156472d1440255b0d7c1e19cc07115d1051fe605b0dce69acfec884d9c",
            "0x1004e23a6c8c43a9c08ce28a4f0d4d4853e162111103c1956b54a7e7082fcedd",
            "0x00000000000000000000000085a0779ca390adad02aa63075373bf33e7c5a711"
          ],
          "data": "0x",
          "blockHash": "0xfeb2cba2f67f8950abfc736a46830f5dc62f557e0b1d14344db8159848dcc458",
          "blockNumber": "0xcf72f4",
          "transactionHash": "0x26df61efbc9c19b310e87d1940c7a2fa483e33192397303e7cfb43e3aa20db22",
          "transactionIndex": "0x47",
          "logIndex": "0x53",
          "removed": false
        }
      ],
      "logsBloom": "0x00000000000000000010000000000000000000000000000000000000000000200000000000000000000000000000000000000000000000100000000000000400000000000000000000000000000000000000000000000000000000000000000000000000400000000000000000000000000000000000020000040000000000000000000000000000000000000000000000000080000000000000000000000000400000000000000000000000000000000100000000000000000000000000000000000000000000000000000000000000000000000000000000000000000000000000000000000000000001000000000000000000000000100000000000000000",
      "type": "0x2",
      "transactionHash": "0x26df61efbc9c19b310e87d1940c7a2fa483e33192397303e7cfb43e3aa20db22",
      "transactionIndex": "0x47",
      "blockHash": "0xfeb2cba2f67f8950abfc736a46830f5dc62f557e0b1d14344db8159848dcc458",
      "blockNumber": "0xcf72f4",
      "gasUsed": "0xce30",
      "effectiveGasPrice": "0xe159526",
      "from": "0x85a0779ca390adad02aa63075373bf33e7c5a711",
      "to": "0x6d6b118d600a941d8a8c31e053cb9717986b60a8",
      "contractAddress": null,
      "l1Fee": "0x94dc47da5",
      "l1GasPrice": "0x397c2ad73",
      "l1GasUsed": "0x930"
    },
    {
      "status": "0x1",
      "cumulativeGasUsed": "0xa450a4",
      "logs": [
        {
          "address": "0x6d6b118d600a941d8a8c31e053cb9717986b60a8",
          "topics": [
            "0xf2a0eb156472d1440255b0d7c1e19cc07115d1051fe605b0dce69acfec884d9c",
            "0x1004e23a6c8c43a9c08ce28a4f0d4d4853e162111103c1956b54a7e7082fcedd",
            "0x000000000000000000000000c2170c60032a0ab2851b6c655960385d8f2c3bba"
          ],
          "data": "0x",
          "blockHash": "0xf6387dabb91ae057e37c406bd9b32de5e3fe51e42298dc257e26551e42c18e88",
          "blockNumber": "0xcf72f7",
          "transactionHash": "0xac9a462e57a6479b9db007f55ce41d4613f3e359a94288a014ec80c16903bd84",
          "transactionIndex": "0x7a",
          "logIndex": "0x67",
          "removed": false
        }
      ],
      "logsBloom": "0x00000000000000000010000000000000000000000000000000080000020000200000000000000000000000000000000000000000000000100000000000000400000000000000000000000000000000000000000000000000000000000000000000000000400000000000000040000000000000000000020000000000000000000000000000000000000000000000000000000000000000000000000000000000400000000000000000000000000000000000000000000000000000000000000000000000000000000000000000000000000000000000000000000000000000000000000000000000000001000000000000000000000000100000000000000000",
      "type": "0x2",
      "transactionHash": "0xac9a462e57a6479b9db007f55ce41d4613f3e359a94288a014ec80c16903bd84",
      "transactionIndex": "0x7a",
      "blockHash": "0xf6387dabb91ae057e37c406bd9b32de5e3fe51e42298dc257e26551e42c18e88",
      "blockNumber": "0xcf72f7",
      "gasUsed": "0xce30",
      "effectiveGasPrice": "0xe2fb967",
      "from": "0xc2170c60032a0ab2851b6c655960385d8f2c3bba",
      "to": "0x6d6b118d600a941d8a8c31e053cb9717986b60a8",
      "contractAddress": null,
      "l1Fee": "0x9323a3ed9",
      "l1GasPrice": "0x38d201aab",
      "l1GasUsed": "0x930"
    },
    {
      "status": "0x1",
      "cumulativeGasUsed": "0x9a436b",
      "logs": [
        {
          "address": "0x6d6b118d600a941d8a8c31e053cb9717986b60a8",
          "topics": [
            "0x66753cd2356569ee081232e3be8909b950e0a76c1f8460c3a5e3c2be32b11bed"
          ],
          "data": "0x000000000000000000000000e89b1abe6dc6170fa958e54e5aef25639ccbd8370000000000000000000000000000000000000000000000000000000000000000000000000000000000000000000000000000000000000000000000000000016000000000000000000000000000000000000000000000000000000000000000000000000000000000000000000000000000000000000000000000000000000000000000000000000000000000000000000000000000000000000000000000000000000000000000000000000000000000000000000000000000000000000000000000000000000000000000000000000000000000000000000000000000000000000000000000000000000000000000000000000000000000000000000000000000000000000000000000000000000000000000000000000000000000000001a000000000000000000000000000000000000000000000000000000000000002600000000000000000000000000000000000000000000000000000000000000004e8927fbc00000000000000000000000000000000000000000000000000000000000000000000000000000000000000000000000000000000000000000000008200000000000000000000000085a0779ca390adad02aa63075373bf33e7c5a711000000000000000000000000000000000000000000000000000000000000000001000000000000000000000000c2170c60032a0ab2851b6c655960385d8f2c3bba00000000000000000000000000000000000000000000000000000000000000000100000000000000000000000000000000000000000000000000000000000000000000000000000000000000000000000000000000000000000000000000600000000000000000000000000000000000000000000000000000000000000005000000000000000000000000c2170c60032a0ab2851b6c655960385d8f2c3bba0000000000000000000000000000000000000000000000000000000000000002",
          "blockHash": "0xb8ef24e1e1cf01b78072a177a900087dbaeadf9e27877add64098383eb192c5d",
          "blockNumber": "0xcf72fb",
          "transactionHash": "0x6e4b4e55af025f4ea5fbd56a91d00df2de8f4662c9d9844cbae8ae1d3b051da2",
          "transactionIndex": "0x4e",
          "logIndex": "0xd4",
          "removed": false
        },
        {
          "address": "0x6d6b118d600a941d8a8c31e053cb9717986b60a8",
          "topics": [
            "0x442e715f626346e8c54381002da614f62bee8d27386535b2521ec8540898556e"
          ],
          "data": "0x1004e23a6c8c43a9c08ce28a4f0d4d4853e162111103c1956b54a7e7082fcedd0000000000000000000000000000000000000000000000000000000000000000",
          "blockHash": "0xb8ef24e1e1cf01b78072a177a900087dbaeadf9e27877add64098383eb192c5d",
          "blockNumber": "0xcf72fb",
          "transactionHash": "0x6e4b4e55af025f4ea5fbd56a91d00df2de8f4662c9d9844cbae8ae1d3b051da2",
          "transactionIndex": "0x4e",
          "logIndex": "0xd5",
          "removed": false
        }
      ],
      "logsBloom": "0x00000000400000000010000000000000000000000000000000000000040000200000000000000000000000000000000000000000000000000000000000000000000000000000000000000000000000000000040000000000000000000000000000000000000000000000000000000000000000000000000000000000000000000000000000000000000000000000000000000000000000000000000000000000400000000400000000000000000004000000000000000000000000000000000000000000000000000000000000020000000000000000000000000000000000000000000000000000000000000000000000000000000000000000000000000000",
      "type": "0x2",
      "transactionHash": "0x6e4b4e55af025f4ea5fbd56a91d00df2de8f4662c9d9844cbae8ae1d3b051da2",
      "transactionIndex": "0x4e",
      "blockHash": "0xb8ef24e1e1cf01b78072a177a900087dbaeadf9e27877add64098383eb192c5d",
      "blockNumber": "0xcf72fb",
      "gasUsed": "0x15345",
      "effectiveGasPrice": "0xe4f4c2f",
      "from": "0xc2170c60032a0ab2851b6c655960385d8f2c3bba",
      "to": "0x6d6b118d600a941d8a8c31e053cb9717986b60a8",
      "contractAddress": null,
      "l1Fee": "0x13c4c9d579",
      "l1GasPrice": "0x38d201aab",
      "l1GasUsed": "0x13c0"
    }
  ],
  "libraries": [],
  "pending": [],
  "returns": {},
  "timestamp": 1713980126,
  "chain": 8453,
  "commit": "87969b4"
}