{
  "transactions": [
    {
      "hash": "0x4ba1db2775d9d7b2d631985faf97524cbbc4fc9f2464ff5135046c65ceea89e6",
      "transactionType": "CREATE",
      "contractName": "TestMultisigTransaction",
      "contractAddress": "0x3c084dfa10f4fe0882424904f6d28f4533549db0",
      "function": null,
      "arguments": [
        "0x6d6b118d600A941D8A8C31e053cB9717986B60a8"
      ],
      "transaction": {
        "from": "0x85a0779ca390adad02aa63075373bf33e7c5a711",
        "to": null,
        "gas": "0x2d2e6",
        "value": "0x0",
        "input": "0x6080604052600060015534801561001557600080fd5b506040516101b83803806101b883398101604081905261003491610059565b600080546001600160a01b0319166001600160a01b0392909216919091179055610089565b60006020828403121561006b57600080fd5b81516001600160a01b038116811461008257600080fd5b9392505050565b610120806100986000396000f3fe6080604052348015600f57600080fd5b506004361060465760003560e01c806326ccab1814604b57806341b01ba01460625780638da5cb5b14606a578063e8927fbc146093575b600080fd5b6001545b6040519081526020015b60405180910390f35b604f60015481565b600054607c906001600160a01b031681565b6040516001600160a01b0390911681526020016059565b6099609b565b005b6000546001600160a01b0316330360c257600180600082825460bc919060c4565b90915550505b565b8082018082111560e457634e487b7160e01b600052601160045260246000fd5b9291505056fea2646970667358221220c390315b9d0dc60fbe2e1ffe9fdfce201c39906b239513017df5cc994c0ec75b64736f6c634300081700330000000000000000000000006d6b118d600a941d8a8c31e053cb9717986b60a8",
        "nonce": "0x1a",
        "chainId": "0x2105",
        "accessList": null,
        "type": null
      },
      "additionalContracts": [],
      "isFixedGasLimit": false
    },
    {
      "hash": "0xd08c19ffb816ff70621143bda073d78187e89968e9d3123531a79b3652ed9a76",
      "transactionType": "CALL",
      "contractName": null,
      "contractAddress": "0x6d6b118d600a941d8a8c31e053cb9717986b60a8",
      "function": "approveHash(bytes32)",
      "arguments": [
        "0xe457c6930a3db9db2ca0bf5ac087d16a512e494d1eefa66649c40533055c7c00"
      ],
      "transaction": {
        "from": "0x85a0779ca390adad02aa63075373bf33e7c5a711",
        "to": "0x6d6b118d600a941d8a8c31e053cb9717986b60a8",
        "gas": "0x11cbb",
        "value": "0x0",
        "input": "0xd4d9bdcde457c6930a3db9db2ca0bf5ac087d16a512e494d1eefa66649c40533055c7c00",
        "nonce": "0x1b",
        "chainId": "0x2105",
        "accessList": null,
        "type": null
      },
      "additionalContracts": [],
      "isFixedGasLimit": false
    },
    {
      "hash": "0xd4fab13008fdbb51571a08ff05b2039dd069693c8af8430b5dee88ff3fb9d4c7",
      "transactionType": "CALL",
      "contractName": null,
      "contractAddress": "0x6d6b118d600a941d8a8c31e053cb9717986b60a8",
      "function": "approveHash(bytes32)",
      "arguments": [
        "0xe457c6930a3db9db2ca0bf5ac087d16a512e494d1eefa66649c40533055c7c00"
      ],
      "transaction": {
        "from": "0xc2170c60032a0ab2851b6c655960385d8f2c3bba",
        "to": "0x6d6b118d600a941d8a8c31e053cb9717986b60a8",
        "gas": "0x11cbb",
        "value": "0x0",
        "input": "0xd4d9bdcde457c6930a3db9db2ca0bf5ac087d16a512e494d1eefa66649c40533055c7c00",
        "nonce": "0x4",
        "chainId": "0x2105",
        "accessList": null,
        "type": null
      },
      "additionalContracts": [],
      "isFixedGasLimit": false
    },
    {
      "hash": "0x576ae72a87b47c904cc4fecad1528f5c0074db6727d3060183f517ca20fbe1fc",
      "transactionType": "CALL",
      "contractName": null,
      "contractAddress": "0x6d6b118d600a941d8a8c31e053cb9717986b60a8",
      "function": "execTransaction(address,uint256,bytes,uint8,uint256,uint256,uint256,address,address,bytes)",
      "arguments": [
        "0xcA11bde05977b3631167028862bE2a173976CA11",
        "0",
        "0x82ad56cb0000000000000000000000000000000000000000000000000000000000000020000000000000000000000000000000000000000000000000000000000000000100000000000000000000000000000000000000000000000000000000000000200000000000000000000000003c084dfa10f4fe0882424904f6d28f4533549db0000000000000000000000000000000000000000000000000000000000000000000000000000000000000000000000000000000000000000000000000000000600000000000000000000000000000000000000000000000000000000000000004e8927fbc00000000000000000000000000000000000000000000000000000000",
        "1",
        "0",
        "0",
        "0",
        "0x0000000000000000000000000000000000000000",
        "0x0000000000000000000000000000000000000000",
        "0x00000000000000000000000085a0779ca390adad02aa63075373bf33e7c5a711000000000000000000000000000000000000000000000000000000000000000001000000000000000000000000c2170c60032a0ab2851b6c655960385d8f2c3bba000000000000000000000000000000000000000000000000000000000000000001"
      ],
      "transaction": {
        "from": "0xc2170c60032a0ab2851b6c655960385d8f2c3bba",
        "to": "0x6d6b118d600a941d8a8c31e053cb9717986b60a8",
        "gas": "0x21ff6",
        "value": "0x0",
        "input": "0x6a761202000000000000000000000000ca11bde05977b3631167028862be2a173976ca11000000000000000000000000000000000000000000000000000000000000000000000000000000000000000000000000000000000000000000000000000001400000000000000000000000000000000000000000000000000000000000000001000000000000000000000000000000000000000000000000000000000000000000000000000000000000000000000000000000000000000000000000000000000000000000000000000000000000000000000000000000000000000000000000000000000000000000000000000000000000000000000000000000000000000000000000000000000000000000000000000000000000000000000000000000000000000000000000000000000000000000000000000000000000000000000280000000000000000000000000000000000000000000000000000000000000010482ad56cb0000000000000000000000000000000000000000000000000000000000000020000000000000000000000000000000000000000000000000000000000000000100000000000000000000000000000000000000000000000000000000000000200000000000000000000000003c084dfa10f4fe0882424904f6d28f4533549db0000000000000000000000000000000000000000000000000000000000000000000000000000000000000000000000000000000000000000000000000000000600000000000000000000000000000000000000000000000000000000000000004e8927fbc0000000000000000000000000000000000000000000000000000000000000000000000000000000000000000000000000000000000000000000000000000000000000000000000000000000000000000000000000000008200000000000000000000000085a0779ca390adad02aa63075373bf33e7c5a711000000000000000000000000000000000000000000000000000000000000000001000000000000000000000000c2170c60032a0ab2851b6c655960385d8f2c3bba000000000000000000000000000000000000000000000000000000000000000001000000000000000000000000000000000000000000000000000000000000",
        "nonce": "0x5",
        "chainId": "0x2105",
        "accessList": null,
        "type": null
      },
      "additionalContracts": [],
      "isFixedGasLimit": false
    }
  ],
  "receipts": [
    {
      "status": "0x1",
      "cumulativeGasUsed": "0x310b24",
      "logs": [],
      "logsBloom": "0x00000000000000000000000000000000000000000000000000000000000000000000000000000000000000000000000000000000000000000000000000000000000000000000000000000000000000000000000000000000000000000000000000000000000000000000000000000000000000000000000000000000000000000000000000000000000000000000000000000000000000000000000000000000000000000000000000000000000000000000000000000000000000000000000000000000000000000000000000000000000000000000000000000000000000000000000000000000000000000000000000000000000000000000000000000000",
      "type": "0x2",
      "transactionHash": "0x4ba1db2775d9d7b2d631985faf97524cbbc4fc9f2464ff5135046c65ceea89e6",
      "transactionIndex": "0x15",
      "blockHash": "0x51f67930204c16ebaecbbdbcff735aa78f2acb025b7254d25e77b23a9460bf70",
      "blockNumber": "0xcf7083",
      "gasUsed": "0x22c32",
      "effectiveGasPrice": "0x5d03a46",
      "from": "0x85a0779ca390adad02aa63075373bf33e7c5a711",
      "to": null,
      "contractAddress": "0x3c084dfa10f4fe0882424904f6d28f4533549db0",
      "l1Fee": "0x1e09e0f733",
      "l1GasPrice": "0x32c2530be",
      "l1GasUsed": "0x2198"
    },
    {
      "status": "0x1",
      "cumulativeGasUsed": "0x559dc0",
      "logs": [
        {
          "address": "0x6d6b118d600a941d8a8c31e053cb9717986b60a8",
          "topics": [
            "0xf2a0eb156472d1440255b0d7c1e19cc07115d1051fe605b0dce69acfec884d9c",
            "0xe457c6930a3db9db2ca0bf5ac087d16a512e494d1eefa66649c40533055c7c00",
            "0x00000000000000000000000085a0779ca390adad02aa63075373bf33e7c5a711"
          ],
          "data": "0x",
          "blockHash": "0x9383f4c0d4f091c9ff18e3c51478b376190a845590277e0c618285046095cf6f",
          "blockNumber": "0xcf7087",
          "transactionHash": "0xd08c19ffb816ff70621143bda073d78187e89968e9d3123531a79b3652ed9a76",
          "transactionIndex": "0x26",
          "logIndex": "0x77",
          "removed": false
        }
      ],
      "logsBloom": "0x00000000000400000010000000000000000000000000000000000000000000200000000000000000000000000000000000000000000800100000000000000000000000000000000000000000000000000000000000000000000000000000000000000000400000000000000000000000000000000000000000040000000000000000000000000000000000004000000000000080000000000000000000000000400000000000000000000000000000000100000000000000000000000000000000000000000000000000000000000000000000000000000000000000000000000000000000000000000000000000000000000000000000100000000000000000",
      "type": "0x2",
      "transactionHash": "0xd08c19ffb816ff70621143bda073d78187e89968e9d3123531a79b3652ed9a76",
      "transactionIndex": "0x26",
      "blockHash": "0x9383f4c0d4f091c9ff18e3c51478b376190a845590277e0c618285046095cf6f",
      "blockNumber": "0xcf7087",
      "gasUsed": "0xce24",
      "effectiveGasPrice": "0x5d07f26",
      "from": "0x85a0779ca390adad02aa63075373bf33e7c5a711",
      "to": "0x6d6b118d600a941d8a8c31e053cb9717986b60a8",
      "contractAddress": null,
      "l1Fee": "0x7f6d11d9a",
      "l1GasPrice": "0x3175c99a5",
      "l1GasUsed": "0x924"
    },
    {
      "status": "0x1",
      "cumulativeGasUsed": "0x79a68e",
      "logs": [
        {
          "address": "0x6d6b118d600a941d8a8c31e053cb9717986b60a8",
          "topics": [
            "0xf2a0eb156472d1440255b0d7c1e19cc07115d1051fe605b0dce69acfec884d9c",
            "0xe457c6930a3db9db2ca0bf5ac087d16a512e494d1eefa66649c40533055c7c00",
            "0x000000000000000000000000c2170c60032a0ab2851b6c655960385d8f2c3bba"
          ],
          "data": "0x",
          "blockHash": "0x939b5621ee7cb7184b8c59a92ca2699b3007511b4431fbca2f2ac3791ecc5ce2",
          "blockNumber": "0xcf708b",
          "transactionHash": "0xd4fab13008fdbb51571a08ff05b2039dd069693c8af8430b5dee88ff3fb9d4c7",
          "transactionIndex": "0x50",
          "logIndex": "0xc0",
          "removed": false
        }
      ],
      "logsBloom": "0x00000000000400000010000000000000000000000000000000080000020000200000000000000000000000000000000000000000000800100000000000000000000000000000000000000000000000000000000000000000000000000000000000000000400000000000000040000000000000000000000000000000000000000000000000000000000000004000000000000000000000000000000000000000400000000000000000000000000000000000000000000000000000000000000000000000000000000000000000000000000000000000000000000000000000000000000000000000000000000000000000000000000000100000000000000000",
      "type": "0x2",
      "transactionHash": "0xd4fab13008fdbb51571a08ff05b2039dd069693c8af8430b5dee88ff3fb9d4c7",
      "transactionIndex": "0x50",
      "blockHash": "0x939b5621ee7cb7184b8c59a92ca2699b3007511b4431fbca2f2ac3791ecc5ce2",
      "blockNumber": "0xcf708b",
      "gasUsed": "0xce24",
      "effectiveGasPrice": "0x5c6949d",
      "from": "0xc2170c60032a0ab2851b6c655960385d8f2c3bba",
      "to": "0x6d6b118d600a941d8a8c31e053cb9717986b60a8",
      "contractAddress": null,
      "l1Fee": "0x78e0e686b",
      "l1GasPrice": "0x2eeb2fc2e",
      "l1GasUsed": "0x924"
    },
    {
      "status": "0x1",
      "cumulativeGasUsed": "0x54eeb8",
      "logs": [
        {
          "address": "0x6d6b118d600a941d8a8c31e053cb9717986b60a8",
          "topics": [
            "0x66753cd2356569ee081232e3be8909b950e0a76c1f8460c3a5e3c2be32b11bed"
          ],
          "data": "0x000000000000000000000000ca11bde05977b3631167028862be2a173976ca110000000000000000000000000000000000000000000000000000000000000000000000000000000000000000000000000000000000000000000000000000016000000000000000000000000000000000000000000000000000000000000000010000000000000000000000000000000000000000000000000000000000000000000000000000000000000000000000000000000000000000000000000000000000000000000000000000000000000000000000000000000000000000000000000000000000000000000000000000000000000000000000000000000000000000000000000000000000000000000000000000000000000000000000000000000000000000000000000000000000000000000000000000000000000000000002a00000000000000000000000000000000000000000000000000000000000000360000000000000000000000000000000000000000000000000000000000000010482ad56cb0000000000000000000000000000000000000000000000000000000000000020000000000000000000000000000000000000000000000000000000000000000100000000000000000000000000000000000000000000000000000000000000200000000000000000000000003c084dfa10f4fe0882424904f6d28f4533549db0000000000000000000000000000000000000000000000000000000000000000000000000000000000000000000000000000000000000000000000000000000600000000000000000000000000000000000000000000000000000000000000004e8927fbc0000000000000000000000000000000000000000000000000000000000000000000000000000000000000000000000000000000000000000000000000000000000000000000000000000000000000000000000000000008200000000000000000000000085a0779ca390adad02aa63075373bf33e7c5a711000000000000000000000000000000000000000000000000000000000000000001000000000000000000000000c2170c60032a0ab2851b6c655960385d8f2c3bba00000000000000000000000000000000000000000000000000000000000000000100000000000000000000000000000000000000000000000000000000000000000000000000000000000000000000000000000000000000000000000000600000000000000000000000000000000000000000000000000000000000000004000000000000000000000000c2170c60032a0ab2851b6c655960385d8f2c3bba0000000000000000000000000000000000000000000000000000000000000002",
          "blockHash": "0xb366ab0e0987f0f0256fd4ea4e449e4d97a23688086abb01f7e29a12b7bcdbdd",
          "blockNumber": "0xcf708f",
          "transactionHash": "0x576ae72a87b47c904cc4fecad1528f5c0074db6727d3060183f517ca20fbe1fc",
          "transactionIndex": "0x28",
          "logIndex": "0x72",
          "removed": false
        },
        {
          "address": "0x6d6b118d600a941d8a8c31e053cb9717986b60a8",
          "topics": [
            "0x442e715f626346e8c54381002da614f62bee8d27386535b2521ec8540898556e"
          ],
          "data": "0xe457c6930a3db9db2ca0bf5ac087d16a512e494d1eefa66649c40533055c7c000000000000000000000000000000000000000000000000000000000000000000",
          "blockHash": "0xb366ab0e0987f0f0256fd4ea4e449e4d97a23688086abb01f7e29a12b7bcdbdd",
          "blockNumber": "0xcf708f",
          "transactionHash": "0x576ae72a87b47c904cc4fecad1528f5c0074db6727d3060183f517ca20fbe1fc",
          "transactionIndex": "0x28",
          "logIndex": "0x73",
          "removed": false
        }
      ],
      "logsBloom": "0x00000000400000000010000000000000000000000000000000000000040000200000000000000000000000000000000000000000000000000000000000000000000000000000000000000000000000000000040000000000000000000000000000000000000000000000000000000000000000000000000000000000000000000000000000000000000000000000000000000000000000000000000000000000400000000400000000000000000004000000000000000000000000000000000000000000000000000000000000020000000000000000000000000000000000000000000000000000000000000000000000000000000000000000000000000000",
      "type": "0x2",
      "transactionHash": "0x576ae72a87b47c904cc4fecad1528f5c0074db6727d3060183f517ca20fbe1fc",
      "transactionIndex": "0x28",
      "blockHash": "0xb366ab0e0987f0f0256fd4ea4e449e4d97a23688086abb01f7e29a12b7bcdbdd",
      "blockNumber": "0xcf708f",
      "gasUsed": "0x173f1",
      "effectiveGasPrice": "0x5c3a501",
      "from": "0xc2170c60032a0ab2851b6c655960385d8f2c3bba",
      "to": "0x6d6b118d600a941d8a8c31e053cb9717986b60a8",
      "contractAddress": null,
      "l1Fee": "0x165f3a5654",
      "l1GasPrice": "0x327bd4a5c",
      "l1GasUsed": "0x1928"
    }
  ],
  "libraries": [],
  "pending": [],
  "returns": {},
  "timestamp": 1713978885,
  "chain": 8453,
  "commit": "87969b4"
}