{
  "transactions": [
    {
      "hash": "0x4908a83ccd873c6ce1beabe3902d381c2ab365710b9b1a796b358d5c0c170ebc",
      "transactionType": "CALL",
      "contractName": null,
      "contractAddress": "0x6d6b118d600a941d8a8c31e053cb9717986b60a8",
      "function": "approveHash(bytes32)",
      "arguments": [
        "0x1aca1cd1b300efc2459fd8012a942e608b71cfb79264be2e92461a8b345e79f5"
      ],
      "transaction": {
        "from": "0x85a0779ca390adad02aa63075373bf33e7c5a711",
        "to": "0x6d6b118d600a941d8a8c31e053cb9717986b60a8",
        "gas": "0x11cbb",
        "value": "0x0",
        "input": "0xd4d9bdcd1aca1cd1b300efc2459fd8012a942e608b71cfb79264be2e92461a8b345e79f5",
        "nonce": "0x17",
        "chainId": "0x2105",
        "accessList": null,
        "type": null
      },
      "additionalContracts": [],
      "isFixedGasLimit": false
    },
    {
      "hash": "0x51712885d6f22537d11bd22a4b94144357b78027cd59baf6fd4e9cfb65941e21",
      "transactionType": "CALL",
      "contractName": null,
      "contractAddress": "0x6d6b118d600a941d8a8c31e053cb9717986b60a8",
      "function": "approveHash(bytes32)",
      "arguments": [
        "0x1aca1cd1b300efc2459fd8012a942e608b71cfb79264be2e92461a8b345e79f5"
      ],
      "transaction": {
        "from": "0xc2170c60032a0ab2851b6c655960385d8f2c3bba",
        "to": "0x6d6b118d600a941d8a8c31e053cb9717986b60a8",
        "gas": "0x11cbb",
        "value": "0x0",
        "input": "0xd4d9bdcd1aca1cd1b300efc2459fd8012a942e608b71cfb79264be2e92461a8b345e79f5",
        "nonce": "0x2",
        "chainId": "0x2105",
        "accessList": null,
        "type": null
      },
      "additionalContracts": [],
      "isFixedGasLimit": false
    }
  ],
  "receipts": [
    {
      "status": "0x1",
      "cumulativeGasUsed": "0xa00b00",
      "logs": [
        {
          "address": "0x6d6b118d600a941d8a8c31e053cb9717986b60a8",
          "topics": [
            "0xf2a0eb156472d1440255b0d7c1e19cc07115d1051fe605b0dce69acfec884d9c",
            "0x1aca1cd1b300efc2459fd8012a942e608b71cfb79264be2e92461a8b345e79f5",
            "0x00000000000000000000000085a0779ca390adad02aa63075373bf33e7c5a711"
          ],
          "data": "0x",
          "blockHash": "0x7f5b6bb2b73d368edac812cddf7602b5e6e23f1cdfadb0c32d4b9fc41a05b911",
          "blockNumber": "0xcf6aee",
          "transactionHash": "0x4908a83ccd873c6ce1beabe3902d381c2ab365710b9b1a796b358d5c0c170ebc",
          "transactionIndex": "0x49",
          "logIndex": "0xd3",
          "removed": false
        }
      ],
      "logsBloom": "0x00000000000000000010000000000000000000000000000000000000000000200000020000000000000000000000000000000000000000100000000000000000000000000000000000000000000000000000000000000000000000000000000000000000400000000000000000000000000000000000000000040000000000000000000000000000000000000000000000000080000000000000000000000000400000000000000000000000000000000100200000000000000000000000000000000000000000000000000000000000000000000000000000000000000000000000000000000000000000000000000000000000000000100000000100000000",
      "type": "0x2",
      "transactionHash": "0x4908a83ccd873c6ce1beabe3902d381c2ab365710b9b1a796b358d5c0c170ebc",
      "transactionIndex": "0x49",
      "blockHash": "0x7f5b6bb2b73d368edac812cddf7602b5e6e23f1cdfadb0c32d4b9fc41a05b911",
      "blockNumber": "0xcf6aee",
      "gasUsed": "0xce24",
      "effectiveGasPrice": "0xde41163",
      "from": "0x85a0779ca390adad02aa63075373bf33e7c5a711",
      "to": "0x6d6b118d600a941d8a8c31e053cb9717986b60a8",
      "contractAddress": null,
      "l1Fee": "0xaf8e4a096",
      "l1GasPrice": "0x44243d06a",
      "l1GasUsed": "0x924"
    },
    {
      "status": "0x1",
      "cumulativeGasUsed": "0x45b17d",
      "logs": [
        {
          "address": "0x6d6b118d600a941d8a8c31e053cb9717986b60a8",
          "topics": [
            "0xf2a0eb156472d1440255b0d7c1e19cc07115d1051fe605b0dce69acfec884d9c",
            "0x1aca1cd1b300efc2459fd8012a942e608b71cfb79264be2e92461a8b345e79f5",
            "0x000000000000000000000000c2170c60032a0ab2851b6c655960385d8f2c3bba"
          ],
          "data": "0x",
          "blockHash": "0x531ea30dcea4e4da2c60f5916504d223771ff38259b6cd5f024c09ccace01d2f",
          "blockNumber": "0xcf6af2",
          "transactionHash": "0x51712885d6f22537d11bd22a4b94144357b78027cd59baf6fd4e9cfb65941e21",
          "transactionIndex": "0x25",
          "logIndex": "0x62",
          "removed": false
        }
      ],
      "logsBloom": "0x00000000000000000010000000000000000000000000000000080000020000200000020000000000000000000000000000000000000000100000000000000000000000000000000000000000000000000000000000000000000000000000000000000000400000000000000040000000000000000000000000000000000000000000000000000000000000000000000000000000000000000000000000000000400000000000000000000000000000000000200000000000000000000000000000000000000000000000000000000000000000000000000000000000000000000000000000000000000000000000000000000000000000100000000100000000",
      "type": "0x2",
      "transactionHash": "0x51712885d6f22537d11bd22a4b94144357b78027cd59baf6fd4e9cfb65941e21",
      "transactionIndex": "0x25",
      "blockHash": "0x531ea30dcea4e4da2c60f5916504d223771ff38259b6cd5f024c09ccace01d2f",
      "blockNumber": "0xcf6af2",
      "gasUsed": "0xce24",
      "effectiveGasPrice": "0xde46bdf",
      "from": "0xc2170c60032a0ab2851b6c655960385d8f2c3bba",
      "to": "0x6d6b118d600a941d8a8c31e053cb9717986b60a8",
      "contractAddress": null,
      "l1Fee": "0xb33caab5e",
      "l1GasPrice": "0x4592051a2",
      "l1GasUsed": "0x924"
    }
  ],
  "libraries": [],
  "pending": [],
  "returns": {},
  "timestamp": 1713976012,
  "chain": 8453,
  "commit": "87969b4"
}