{
  "transactions": [
    {
      "hash": "0x43658d9b89748a08a9cd64c6ab24e8a463d5a3b26e2a986f08d6ffd3e0aa290a",
      "transactionType": "CREATE",
      "contractName": "TestMultisigTransaction",
      "contractAddress": "0xf9e04b49806861cfd6ed3aac058716c2de525fd2",
      "function": null,
      "arguments": [
        "0x6d6b118d600A941D8A8C31e053cB9717986B60a8"
      ],
      "transaction": {
        "from": "0x85a0779ca390adad02aa63075373bf33e7c5a711",
        "to": null,
        "gas": "0x2d2e6",
        "value": "0x0",
        "input": "0x6080604052600060015534801561001557600080fd5b506040516101b83803806101b883398101604081905261003491610059565b600080546001600160a01b0319166001600160a01b0392909216919091179055610089565b60006020828403121561006b57600080fd5b81516001600160a01b038116811461008257600080fd5b9392505050565b610120806100986000396000f3fe6080604052348015600f57600080fd5b506004361060465760003560e01c806326ccab1814604b57806341b01ba01460625780638da5cb5b14606a578063e8927fbc146093575b600080fd5b6001545b6040519081526020015b60405180910390f35b604f60015481565b600054607c906001600160a01b031681565b6040516001600160a01b0390911681526020016059565b6099609b565b005b6000546001600160a01b0316330360c257600180600082825460bc919060c4565b90915550505b565b8082018082111560e457634e487b7160e01b600052601160045260246000fd5b9291505056fea2646970667358221220c390315b9d0dc60fbe2e1ffe9fdfce201c39906b239513017df5cc994c0ec75b64736f6c634300081700330000000000000000000000006d6b118d600a941d8a8c31e053cb9717986b60a8",
        "nonce": "0x18",
        "chainId": "0x2105",
        "accessList": null,
        "type": null
      },
      "additionalContracts": [],
      "isFixedGasLimit": false
    },
    {
      "hash": "0x43b244bf00cf52c438e851c4c6d54ac5625ddb7f17921eaee50fbdd2e29a5762",
      "transactionType": "CALL",
      "contractName": null,
      "contractAddress": "0x6d6b118d600a941d8a8c31e053cb9717986b60a8",
      "function": "approveHash(bytes32)",
      "arguments": [
        "0x4f09dcb52879eaa0a153ef558937a455376a3ec1e7113736e9655f8b7470a667"
      ],
      "transaction": {
        "from": "0x85a0779ca390adad02aa63075373bf33e7c5a711",
        "to": "0x6d6b118d600a941d8a8c31e053cb9717986b60a8",
        "gas": "0x11ccb",
        "value": "0x0",
        "input": "0xd4d9bdcd4f09dcb52879eaa0a153ef558937a455376a3ec1e7113736e9655f8b7470a667",
        "nonce": "0x19",
        "chainId": "0x2105",
        "accessList": null,
        "type": null
      },
      "additionalContracts": [],
      "isFixedGasLimit": false
    },
    {
      "hash": "0xb1e05990723d2b5f55f7e4ea4602ed239311795fcbac2694e281a7adb1ccfd8b",
      "transactionType": "CALL",
      "contractName": null,
      "contractAddress": "0x6d6b118d600a941d8a8c31e053cb9717986b60a8",
      "function": "approveHash(bytes32)",
      "arguments": [
        "0x4f09dcb52879eaa0a153ef558937a455376a3ec1e7113736e9655f8b7470a667"
      ],
      "transaction": {
        "from": "0xc2170c60032a0ab2851b6c655960385d8f2c3bba",
        "to": "0x6d6b118d600a941d8a8c31e053cb9717986b60a8",
        "gas": "0x11ccb",
        "value": "0x0",
        "input": "0xd4d9bdcd4f09dcb52879eaa0a153ef558937a455376a3ec1e7113736e9655f8b7470a667",
        "nonce": "0x3",
        "chainId": "0x2105",
        "accessList": null,
        "type": null
      },
      "additionalContracts": [],
      "isFixedGasLimit": false
    }
  ],
  "receipts": [
    {
      "status": "0x1",
      "cumulativeGasUsed": "0xf27cf6",
      "logs": [],
      "logsBloom": "0x00000000000000000000000000000000000000000000000000000000000000000000000000000000000000000000000000000000000000000000000000000000000000000000000000000000000000000000000000000000000000000000000000000000000000000000000000000000000000000000000000000000000000000000000000000000000000000000000000000000000000000000000000000000000000000000000000000000000000000000000000000000000000000000000000000000000000000000000000000000000000000000000000000000000000000000000000000000000000000000000000000000000000000000000000000000",
      "type": "0x2",
      "transactionHash": "0x43658d9b89748a08a9cd64c6ab24e8a463d5a3b26e2a986f08d6ffd3e0aa290a",
      "transactionIndex": "0x2d",
      "blockHash": "0x29a752c61514b20553ab9cd4dbc95b162c3cf007284da18e56594f6b1be1c03f",
      "blockNumber": "0xcf6efd",
      "gasUsed": "0x22c32",
      "effectiveGasPrice": "0x7888627",
      "from": "0x85a0779ca390adad02aa63075373bf33e7c5a711",
      "to": null,
      "contractAddress": "0xf9e04b49806861cfd6ed3aac058716c2de525fd2",
      "l1Fee": "0x206c368470",
      "l1GasPrice": "0x36c9aa1d7",
      "l1GasUsed": "0x2198"
    },
    {
      "status": "0x1",
      "cumulativeGasUsed": "0x6985b9",
      "logs": [
        {
          "address": "0x6d6b118d600a941d8a8c31e053cb9717986b60a8",
          "topics": [
            "0xf2a0eb156472d1440255b0d7c1e19cc07115d1051fe605b0dce69acfec884d9c",
            "0x4f09dcb52879eaa0a153ef558937a455376a3ec1e7113736e9655f8b7470a667",
            "0x00000000000000000000000085a0779ca390adad02aa63075373bf33e7c5a711"
          ],
          "data": "0x",
          "blockHash": "0x5e38fa6a290e7b8eeabc357f785ef252b9e2282dd52f0249d01b36b9e6e010da",
          "blockNumber": "0xcf6f01",
          "transactionHash": "0x43b244bf00cf52c438e851c4c6d54ac5625ddb7f17921eaee50fbdd2e29a5762",
          "transactionIndex": "0x25",
          "logIndex": "0x6b",
          "removed": false
        }
      ],
      "logsBloom": "0x00000000000000000010200000000000000000000000000000000000000000200000000000000000000000000000000000000000000000100000000000000000000000000000000000000000000000000000000000000000000000000000000000000000400000000000000000000000000000000000000000040000000000000000000000000000000000000000000000000080000000000000000000000000400000000000000000000000000000000100000000000000000000000000000000000000000000000000000000000000000000000000000000001000000000000000000000000000000000000000000000000040000000100000000000000000",
      "type": "0x2",
      "transactionHash": "0x43b244bf00cf52c438e851c4c6d54ac5625ddb7f17921eaee50fbdd2e29a5762",
      "transactionIndex": "0x25",
      "blockHash": "0x5e38fa6a290e7b8eeabc357f785ef252b9e2282dd52f0249d01b36b9e6e010da",
      "blockNumber": "0xcf6f01",
      "gasUsed": "0xce30",
      "effectiveGasPrice": "0x792f0b2",
      "from": "0x85a0779ca390adad02aa63075373bf33e7c5a711",
      "to": "0x6d6b118d600a941d8a8c31e053cb9717986b60a8",
      "contractAddress": null,
      "l1Fee": "0x8b42403ca",
      "l1GasPrice": "0x35c6f4f8e",
      "l1GasUsed": "0x930"
    },
    {
      "status": "0x1",
      "cumulativeGasUsed": "0xc73825",
      "logs": [
        {
          "address": "0x6d6b118d600a941d8a8c31e053cb9717986b60a8",
          "topics": [
            "0xf2a0eb156472d1440255b0d7c1e19cc07115d1051fe605b0dce69acfec884d9c",
            "0x4f09dcb52879eaa0a153ef558937a455376a3ec1e7113736e9655f8b7470a667",
            "0x000000000000000000000000c2170c60032a0ab2851b6c655960385d8f2c3bba"
          ],
          "data": "0x",
          "blockHash": "0x29a8a7dbc9cbb7ced1682aeb90f70d5606df2070b1f84b9d31fcf1ae1729f4fb",
          "blockNumber": "0xcf6f05",
          "transactionHash": "0xb1e05990723d2b5f55f7e4ea4602ed239311795fcbac2694e281a7adb1ccfd8b",
          "transactionIndex": "0x30",
          "logIndex": "0x168",
          "removed": false
        }
      ],
      "logsBloom": "0x00000000000000000010200000000000000000000000000000080000020000200000000000000000000000000000000000000000000000100000000000000000000000000000000000000000000000000000000000000000000000000000000000000000400000000000000040000000000000000000000000000000000000000000000000000000000000000000000000000000000000000000000000000000400000000000000000000000000000000000000000000000000000000000000000000000000000000000000000000000000000000000000000001000000000000000000000000000000000000000000000000040000000100000000000000000",
      "type": "0x2",
      "transactionHash": "0xb1e05990723d2b5f55f7e4ea4602ed239311795fcbac2694e281a7adb1ccfd8b",
      "transactionIndex": "0x30",
      "blockHash": "0x29a8a7dbc9cbb7ced1682aeb90f70d5606df2070b1f84b9d31fcf1ae1729f4fb",
      "blockNumber": "0xcf6f05",
      "gasUsed": "0xce30",
      "effectiveGasPrice": "0x792a546",
      "from": "0xc2170c60032a0ab2851b6c655960385d8f2c3bba",
      "to": "0x6d6b118d600a941d8a8c31e053cb9717986b60a8",
      "contractAddress": null,
      "l1Fee": "0x8a8c5ca4c",
      "l1GasPrice": "0x35c6f4f8e",
      "l1GasUsed": "0x924"
    }
  ],
  "libraries": [],
  "pending": [],
  "returns": {},
  "timestamp": 1713978097,
  "chain": 8453,
  "commit": "87969b4"
}